{
  "_format": "hh-sol-artifact-1",
  "contractName": "FighterNFT",
  "sourceName": "contracts/FighterNFT.sol",
  "abi": [
    {
      "inputs": [],
      "stateMutability": "nonpayable",
      "type": "constructor"
    },
    {
      "inputs": [
        {
          "internalType": "address",
          "name": "sender",
          "type": "address"
        },
        {
          "internalType": "uint256",
          "name": "tokenId",
          "type": "uint256"
        },
        {
          "internalType": "address",
          "name": "owner",
          "type": "address"
        }
      ],
      "name": "ERC721IncorrectOwner",
      "type": "error"
    },
    {
      "inputs": [
        {
          "internalType": "address",
          "name": "operator",
          "type": "address"
        },
        {
          "internalType": "uint256",
          "name": "tokenId",
          "type": "uint256"
        }
      ],
      "name": "ERC721InsufficientApproval",
      "type": "error"
    },
    {
      "inputs": [
        {
          "internalType": "address",
          "name": "approver",
          "type": "address"
        }
      ],
      "name": "ERC721InvalidApprover",
      "type": "error"
    },
    {
      "inputs": [
        {
          "internalType": "address",
          "name": "operator",
          "type": "address"
        }
      ],
      "name": "ERC721InvalidOperator",
      "type": "error"
    },
    {
      "inputs": [
        {
          "internalType": "address",
          "name": "owner",
          "type": "address"
        }
      ],
      "name": "ERC721InvalidOwner",
      "type": "error"
    },
    {
      "inputs": [
        {
          "internalType": "address",
          "name": "receiver",
          "type": "address"
        }
      ],
      "name": "ERC721InvalidReceiver",
      "type": "error"
    },
    {
      "inputs": [
        {
          "internalType": "address",
          "name": "sender",
          "type": "address"
        }
      ],
      "name": "ERC721InvalidSender",
      "type": "error"
    },
    {
      "inputs": [
        {
          "internalType": "uint256",
          "name": "tokenId",
          "type": "uint256"
        }
      ],
      "name": "ERC721NonexistentToken",
      "type": "error"
    },
    {
      "inputs": [
        {
          "internalType": "address",
          "name": "owner",
          "type": "address"
        }
      ],
      "name": "OwnableInvalidOwner",
      "type": "error"
    },
    {
      "inputs": [
        {
          "internalType": "address",
          "name": "account",
          "type": "address"
        }
      ],
      "name": "OwnableUnauthorizedAccount",
      "type": "error"
    },
    {
      "anonymous": false,
      "inputs": [
        {
          "indexed": true,
          "internalType": "address",
          "name": "owner",
          "type": "address"
        },
        {
          "indexed": true,
          "internalType": "address",
          "name": "approved",
          "type": "address"
        },
        {
          "indexed": true,
          "internalType": "uint256",
          "name": "tokenId",
          "type": "uint256"
        }
      ],
      "name": "Approval",
      "type": "event"
    },
    {
      "anonymous": false,
      "inputs": [
        {
          "indexed": true,
          "internalType": "address",
          "name": "owner",
          "type": "address"
        },
        {
          "indexed": true,
          "internalType": "address",
          "name": "operator",
          "type": "address"
        },
        {
          "indexed": false,
          "internalType": "bool",
          "name": "approved",
          "type": "bool"
        }
      ],
      "name": "ApprovalForAll",
      "type": "event"
    },
    {
      "anonymous": false,
      "inputs": [
        {
          "indexed": true,
          "internalType": "address",
          "name": "previousOwner",
          "type": "address"
        },
        {
          "indexed": true,
          "internalType": "address",
          "name": "newOwner",
          "type": "address"
        }
      ],
      "name": "OwnershipTransferred",
      "type": "event"
    },
    {
      "anonymous": false,
      "inputs": [
        {
          "indexed": true,
          "internalType": "address",
          "name": "from",
          "type": "address"
        },
        {
          "indexed": true,
          "internalType": "address",
          "name": "to",
          "type": "address"
        },
        {
          "indexed": true,
          "internalType": "uint256",
          "name": "tokenId",
          "type": "uint256"
        }
      ],
      "name": "Transfer",
      "type": "event"
    },
    {
      "inputs": [
        {
          "internalType": "address",
          "name": "to",
          "type": "address"
        },
        {
          "internalType": "uint256",
          "name": "tokenId",
          "type": "uint256"
        }
      ],
      "name": "approve",
      "outputs": [],
      "stateMutability": "nonpayable",
      "type": "function"
    },
    {
      "inputs": [
        {
          "internalType": "address",
          "name": "owner",
          "type": "address"
        }
      ],
      "name": "balanceOf",
      "outputs": [
        {
          "internalType": "uint256",
          "name": "",
          "type": "uint256"
        }
      ],
      "stateMutability": "view",
      "type": "function"
    },
    {
      "inputs": [
        {
          "internalType": "uint256",
          "name": "",
          "type": "uint256"
        }
      ],
      "name": "fighterStats",
      "outputs": [
        {
          "internalType": "uint8",
          "name": "str",
          "type": "uint8"
        },
        {
          "internalType": "uint8",
          "name": "dex",
          "type": "uint8"
        },
        {
          "internalType": "uint16",
          "name": "hp",
          "type": "uint16"
        }
      ],
      "stateMutability": "view",
      "type": "function"
    },
    {
      "inputs": [
        {
          "internalType": "uint256",
          "name": "tokenId",
          "type": "uint256"
        }
      ],
      "name": "getApproved",
      "outputs": [
        {
          "internalType": "address",
          "name": "",
          "type": "address"
        }
      ],
      "stateMutability": "view",
      "type": "function"
    },
    {
      "inputs": [
        {
          "internalType": "uint256",
          "name": "tokenId",
          "type": "uint256"
        }
      ],
      "name": "getStats",
      "outputs": [
        {
          "components": [
            {
              "internalType": "uint8",
              "name": "str",
              "type": "uint8"
            },
            {
              "internalType": "uint8",
              "name": "dex",
              "type": "uint8"
            },
            {
              "internalType": "uint16",
              "name": "hp",
              "type": "uint16"
            }
          ],
          "internalType": "struct FighterNFT.FighterStats",
          "name": "",
          "type": "tuple"
        }
      ],
      "stateMutability": "view",
      "type": "function"
    },
    {
      "inputs": [
        {
          "internalType": "address",
          "name": "owner",
          "type": "address"
        },
        {
          "internalType": "address",
          "name": "operator",
          "type": "address"
        }
      ],
      "name": "isApprovedForAll",
      "outputs": [
        {
          "internalType": "bool",
          "name": "",
          "type": "bool"
        }
      ],
      "stateMutability": "view",
      "type": "function"
    },
    {
      "inputs": [
        {
          "internalType": "address",
          "name": "to",
          "type": "address"
        }
      ],
      "name": "mint",
      "outputs": [],
      "stateMutability": "nonpayable",
      "type": "function"
    },
    {
      "inputs": [],
      "name": "name",
      "outputs": [
        {
          "internalType": "string",
          "name": "",
          "type": "string"
        }
      ],
      "stateMutability": "view",
      "type": "function"
    },
    {
      "inputs": [],
      "name": "owner",
      "outputs": [
        {
          "internalType": "address",
          "name": "",
          "type": "address"
        }
      ],
      "stateMutability": "view",
      "type": "function"
    },
    {
      "inputs": [
        {
          "internalType": "uint256",
          "name": "tokenId",
          "type": "uint256"
        }
      ],
      "name": "ownerOf",
      "outputs": [
        {
          "internalType": "address",
          "name": "",
          "type": "address"
        }
      ],
      "stateMutability": "view",
      "type": "function"
    },
    {
      "inputs": [],
      "name": "renounceOwnership",
      "outputs": [],
      "stateMutability": "nonpayable",
      "type": "function"
    },
    {
      "inputs": [
        {
          "internalType": "address",
          "name": "from",
          "type": "address"
        },
        {
          "internalType": "address",
          "name": "to",
          "type": "address"
        },
        {
          "internalType": "uint256",
          "name": "tokenId",
          "type": "uint256"
        }
      ],
      "name": "safeTransferFrom",
      "outputs": [],
      "stateMutability": "nonpayable",
      "type": "function"
    },
    {
      "inputs": [
        {
          "internalType": "address",
          "name": "from",
          "type": "address"
        },
        {
          "internalType": "address",
          "name": "to",
          "type": "address"
        },
        {
          "internalType": "uint256",
          "name": "tokenId",
          "type": "uint256"
        },
        {
          "internalType": "bytes",
          "name": "data",
          "type": "bytes"
        }
      ],
      "name": "safeTransferFrom",
      "outputs": [],
      "stateMutability": "nonpayable",
      "type": "function"
    },
    {
      "inputs": [
        {
          "internalType": "address",
          "name": "operator",
          "type": "address"
        },
        {
          "internalType": "bool",
          "name": "approved",
          "type": "bool"
        }
      ],
      "name": "setApprovalForAll",
      "outputs": [],
      "stateMutability": "nonpayable",
      "type": "function"
    },
    {
      "inputs": [
        {
          "internalType": "bytes4",
          "name": "interfaceId",
          "type": "bytes4"
        }
      ],
      "name": "supportsInterface",
      "outputs": [
        {
          "internalType": "bool",
          "name": "",
          "type": "bool"
        }
      ],
      "stateMutability": "view",
      "type": "function"
    },
    {
      "inputs": [],
      "name": "symbol",
      "outputs": [
        {
          "internalType": "string",
          "name": "",
          "type": "string"
        }
      ],
      "stateMutability": "view",
      "type": "function"
    },
    {
      "inputs": [
        {
          "internalType": "uint256",
          "name": "tokenId",
          "type": "uint256"
        }
      ],
      "name": "tokenURI",
      "outputs": [
        {
          "internalType": "string",
          "name": "",
          "type": "string"
        }
      ],
      "stateMutability": "view",
      "type": "function"
    },
    {
      "inputs": [
        {
          "internalType": "address",
          "name": "from",
          "type": "address"
        },
        {
          "internalType": "address",
          "name": "to",
          "type": "address"
        },
        {
          "internalType": "uint256",
          "name": "tokenId",
          "type": "uint256"
        }
      ],
      "name": "transferFrom",
      "outputs": [],
      "stateMutability": "nonpayable",
      "type": "function"
    },
    {
      "inputs": [
        {
          "internalType": "address",
          "name": "newOwner",
          "type": "address"
        }
      ],
      "name": "transferOwnership",
      "outputs": [],
      "stateMutability": "nonpayable",
      "type": "function"
    }
  ],
  "bytecode": "0x60806040523480156200001157600080fd5b50336040518060400160405280601781526020017f43727970746f4669676874436c756220466967687465720000000000000000008152506040518060400160405280600481526020017f4346434600000000000000000000000000000000000000000000000000000000815250816000908162000090919062000472565b508060019081620000a2919062000472565b505050600073ffffffffffffffffffffffffffffffffffffffff168173ffffffffffffffffffffffffffffffffffffffff16036200011a5760006040517f1e4fbdf70000000000000000000000000000000000000000000000000000000081526004016200011191906200059e565b60405180910390fd5b6200012b816200013260201b60201c565b50620005bb565b6000600660009054906101000a900473ffffffffffffffffffffffffffffffffffffffff16905081600660006101000a81548173ffffffffffffffffffffffffffffffffffffffff021916908373ffffffffffffffffffffffffffffffffffffffff1602179055508173ffffffffffffffffffffffffffffffffffffffff168173ffffffffffffffffffffffffffffffffffffffff167f8be0079c531659141344cd1fd0a4f28419497f9722a3daafe3b4186f6b6457e060405160405180910390a35050565b600081519050919050565b7f4e487b7100000000000000000000000000000000000000000000000000000000600052604160045260246000fd5b7f4e487b7100000000000000000000000000000000000000000000000000000000600052602260045260246000fd5b600060028204905060018216806200027a57607f821691505b60208210810362000290576200028f62000232565b5b50919050565b60008190508160005260206000209050919050565b60006020601f8301049050919050565b600082821b905092915050565b600060088302620002fa7fffffffffffffffffffffffffffffffffffffffffffffffffffffffffffffffff82620002bb565b620003068683620002bb565b95508019841693508086168417925050509392505050565b6000819050919050565b6000819050919050565b6000620003536200034d62000347846200031e565b62000328565b6200031e565b9050919050565b6000819050919050565b6200036f8362000332565b620003876200037e826200035a565b848454620002c8565b825550505050565b600090565b6200039e6200038f565b620003ab81848462000364565b505050565b5b81811015620003d357620003c760008262000394565b600181019050620003b1565b5050565b601f8211156200042257620003ec8162000296565b620003f784620002ab565b8101602085101562000407578190505b6200041f6200041685620002ab565b830182620003b0565b50505b505050565b600082821c905092915050565b6000620004476000198460080262000427565b1980831691505092915050565b600062000462838362000434565b9150826002028217905092915050565b6200047d82620001f8565b67ffffffffffffffff81111562000499576200049862000203565b5b620004a5825462000261565b620004b2828285620003d7565b600060209050601f831160018114620004ea5760008415620004d5578287015190505b620004e1858262000454565b86555062000551565b601f198416620004fa8662000296565b60005b828110156200052457848901518255600182019150602085019450602081019050620004fd565b8683101562000544578489015162000540601f89168262000434565b8355505b6001600288020188555050505b505050505050565b600073ffffffffffffffffffffffffffffffffffffffff82169050919050565b6000620005868262000559565b9050919050565b620005988162000579565b82525050565b6000602082019050620005b560008301846200058d565b92915050565b61273980620005cb6000396000f3fe608060405234801561001057600080fd5b50600436106101215760003560e01c806370a08231116100ad578063a22cb46511610071578063a22cb4651461031c578063b88d4fde14610338578063c87b56dd14610354578063e985e9c514610384578063f2fde38b146103b457610121565b806370a0823114610276578063715018a6146102a65780637b303965146102b05780638da5cb5b146102e057806395d89b41146102fe57610121565b806323b872dd116100f457806323b872dd146101c057806342842e0e146101dc5780636352211e146101f857806363a5372d146102285780636a6278421461025a57610121565b806301ffc9a71461012657806306fdde0314610156578063081812fc14610174578063095ea7b3146101a4575b600080fd5b610140600480360381019061013b9190611c10565b6103d0565b60405161014d9190611c58565b60405180910390f35b61015e6104b2565b60405161016b9190611d03565b60405180910390f35b61018e60048036038101906101899190611d5b565b610544565b60405161019b9190611dc9565b60405180910390f35b6101be60048036038101906101b99190611e10565b610560565b005b6101da60048036038101906101d59190611e50565b610576565b005b6101f660048036038101906101f19190611e50565b610678565b005b610212600480360381019061020d9190611d5b565b610698565b60405161021f9190611dc9565b60405180910390f35b610242600480360381019061023d9190611d5b565b6106aa565b60405161025193929190611edc565b60405180910390f35b610274600480360381019061026f9190611f13565b6106fc565b005b610290600480360381019061028b9190611f13565b61081c565b60405161029d9190611f4f565b60405180910390f35b6102ae6108d6565b005b6102ca60048036038101906102c59190611d5b565b6108ea565b6040516102d79190611fca565b60405180910390f35b6102e86109e8565b6040516102f59190611dc9565b60405180910390f35b610306610a12565b6040516103139190611d03565b60405180910390f35b61033660048036038101906103319190612011565b610aa4565b005b610352600480360381019061034d9190612186565b610aba565b005b61036e60048036038101906103699190611d5b565b610adf565b60405161037b9190611d03565b60405180910390f35b61039e60048036038101906103999190612209565b610b48565b6040516103ab9190611c58565b60405180910390f35b6103ce60048036038101906103c99190611f13565b610bdc565b005b60007f80ac58cd000000000000000000000000000000000000000000000000000000007bffffffffffffffffffffffffffffffffffffffffffffffffffffffff1916827bffffffffffffffffffffffffffffffffffffffffffffffffffffffff1916148061049b57507f5b5e139f000000000000000000000000000000000000000000000000000000007bffffffffffffffffffffffffffffffffffffffffffffffffffffffff1916827bffffffffffffffffffffffffffffffffffffffffffffffffffffffff1916145b806104ab57506104aa82610c62565b5b9050919050565b6060600080546104c190612278565b80601f01602080910402602001604051908101604052809291908181526020018280546104ed90612278565b801561053a5780601f1061050f5761010080835404028352916020019161053a565b820191906000526020600020905b81548152906001019060200180831161051d57829003601f168201915b5050505050905090565b600061054f82610ccc565b5061055982610d54565b9050919050565b610572828261056d610d91565b610d99565b5050565b600073ffffffffffffffffffffffffffffffffffffffff168273ffffffffffffffffffffffffffffffffffffffff16036105e85760006040517f64a0ae920000000000000000000000000000000000000000000000000000000081526004016105df9190611dc9565b60405180910390fd5b60006105fc83836105f7610d91565b610dab565b90508373ffffffffffffffffffffffffffffffffffffffff168173ffffffffffffffffffffffffffffffffffffffff1614610672578382826040517f64283d7b000000000000000000000000000000000000000000000000000000008152600401610669939291906122a9565b60405180910390fd5b50505050565b61069383838360405180602001604052806000815250610aba565b505050565b60006106a382610ccc565b9050919050565b60086020528060005260406000206000915090508060000160009054906101000a900460ff16908060000160019054906101000a900460ff16908060000160029054906101000a900461ffff16905083565b6007600081548092919061070f9061230f565b9190505550600060075490506107258282610fc5565b6040518060600160405280610738610fe3565b60ff168152602001610748610fe3565b60ff168152602001606460c8423343604051602001610769939291906123c0565b6040516020818303038152906040528051906020012060001c61078c919061242c565b610796919061245d565b61ffff168152506008600083815260200190815260200160002060008201518160000160006101000a81548160ff021916908360ff16021790555060208201518160000160016101000a81548160ff021916908360ff16021790555060408201518160000160026101000a81548161ffff021916908361ffff1602179055509050505050565b60008073ffffffffffffffffffffffffffffffffffffffff168273ffffffffffffffffffffffffffffffffffffffff160361088f5760006040517f89c62b640000000000000000000000000000000000000000000000000000000081526004016108869190611dc9565b60405180910390fd5b600360008373ffffffffffffffffffffffffffffffffffffffff1673ffffffffffffffffffffffffffffffffffffffff168152602001908152602001600020549050919050565b6108de611030565b6108e860006110b7565b565b6108f2611b79565b600073ffffffffffffffffffffffffffffffffffffffff166109138361117d565b73ffffffffffffffffffffffffffffffffffffffff1603610969576040517f08c379a000000000000000000000000000000000000000000000000000000000815260040161096090612505565b60405180910390fd5b600860008381526020019081526020016000206040518060600160405290816000820160009054906101000a900460ff1660ff1660ff1681526020016000820160019054906101000a900460ff1660ff1660ff1681526020016000820160029054906101000a900461ffff1661ffff1661ffff16815250509050919050565b6000600660009054906101000a900473ffffffffffffffffffffffffffffffffffffffff16905090565b606060018054610a2190612278565b80601f0160208091040260200160405190810160405280929190818152602001828054610a4d90612278565b8015610a9a5780601f10610a6f57610100808354040283529160200191610a9a565b820191906000526020600020905b815481529060010190602001808311610a7d57829003601f168201915b5050505050905090565b610ab6610aaf610d91565b83836111ba565b5050565b610ac5848484610576565b610ad9610ad0610d91565b85858585611329565b50505050565b6060610aea82610ccc565b506000610af56114da565b90506000815111610b155760405180602001604052806000815250610b40565b80610b1f846114f1565b604051602001610b30929190612561565b6040516020818303038152906040525b915050919050565b6000600560008473ffffffffffffffffffffffffffffffffffffffff1673ffffffffffffffffffffffffffffffffffffffff16815260200190815260200160002060008373ffffffffffffffffffffffffffffffffffffffff1673ffffffffffffffffffffffffffffffffffffffff16815260200190815260200160002060009054906101000a900460ff16905092915050565b610be4611030565b600073ffffffffffffffffffffffffffffffffffffffff168173ffffffffffffffffffffffffffffffffffffffff1603610c565760006040517f1e4fbdf7000000000000000000000000000000000000000000000000000000008152600401610c4d9190611dc9565b60405180910390fd5b610c5f816110b7565b50565b60007f01ffc9a7000000000000000000000000000000000000000000000000000000007bffffffffffffffffffffffffffffffffffffffffffffffffffffffff1916827bffffffffffffffffffffffffffffffffffffffffffffffffffffffff1916149050919050565b600080610cd88361117d565b9050600073ffffffffffffffffffffffffffffffffffffffff168173ffffffffffffffffffffffffffffffffffffffff1603610d4b57826040517f7e273289000000000000000000000000000000000000000000000000000000008152600401610d429190611f4f565b60405180910390fd5b80915050919050565b60006004600083815260200190815260200160002060009054906101000a900473ffffffffffffffffffffffffffffffffffffffff169050919050565b600033905090565b610da683838360016115bf565b505050565b600080610db78461117d565b9050600073ffffffffffffffffffffffffffffffffffffffff168373ffffffffffffffffffffffffffffffffffffffff1614610df957610df8818486611784565b5b600073ffffffffffffffffffffffffffffffffffffffff168173ffffffffffffffffffffffffffffffffffffffff1614610e8a57610e3b6000856000806115bf565b6001600360008373ffffffffffffffffffffffffffffffffffffffff1673ffffffffffffffffffffffffffffffffffffffff168152602001908152602001600020600082825403925050819055505b600073ffffffffffffffffffffffffffffffffffffffff168573ffffffffffffffffffffffffffffffffffffffff1614610f0d576001600360008773ffffffffffffffffffffffffffffffffffffffff1673ffffffffffffffffffffffffffffffffffffffff168152602001908152602001600020600082825401925050819055505b846002600086815260200190815260200160002060006101000a81548173ffffffffffffffffffffffffffffffffffffffff021916908373ffffffffffffffffffffffffffffffffffffffff160217905550838573ffffffffffffffffffffffffffffffffffffffff168273ffffffffffffffffffffffffffffffffffffffff167fddf252ad1be2c89b69c2b068fc378daa952ba7f163c4a11628f55a4df523b3ef60405160405180910390a4809150509392505050565b610fdf828260405180602001604052806000815250611848565b5050565b600060016064424433604051602001610ffe93929190612585565b6040516020818303038152906040528051906020012060001c611021919061242c565b61102b91906125c2565b905090565b611038610d91565b73ffffffffffffffffffffffffffffffffffffffff166110566109e8565b73ffffffffffffffffffffffffffffffffffffffff16146110b557611079610d91565b6040517f118cdaa70000000000000000000000000000000000000000000000000000000081526004016110ac9190611dc9565b60405180910390fd5b565b6000600660009054906101000a900473ffffffffffffffffffffffffffffffffffffffff16905081600660006101000a81548173ffffffffffffffffffffffffffffffffffffffff021916908373ffffffffffffffffffffffffffffffffffffffff1602179055508173ffffffffffffffffffffffffffffffffffffffff168173ffffffffffffffffffffffffffffffffffffffff167f8be0079c531659141344cd1fd0a4f28419497f9722a3daafe3b4186f6b6457e060405160405180910390a35050565b60006002600083815260200190815260200160002060009054906101000a900473ffffffffffffffffffffffffffffffffffffffff169050919050565b600073ffffffffffffffffffffffffffffffffffffffff168273ffffffffffffffffffffffffffffffffffffffff160361122b57816040517f5b08ba180000000000000000000000000000000000000000000000000000000081526004016112229190611dc9565b60405180910390fd5b80600560008573ffffffffffffffffffffffffffffffffffffffff1673ffffffffffffffffffffffffffffffffffffffff16815260200190815260200160002060008473ffffffffffffffffffffffffffffffffffffffff1673ffffffffffffffffffffffffffffffffffffffff16815260200190815260200160002060006101000a81548160ff0219169083151502179055508173ffffffffffffffffffffffffffffffffffffffff168373ffffffffffffffffffffffffffffffffffffffff167f17307eab39ab6107e8899845ad3d59bd9653f200f220920489ca2b5937696c318360405161131c9190611c58565b60405180910390a3505050565b60008373ffffffffffffffffffffffffffffffffffffffff163b11156114d3578273ffffffffffffffffffffffffffffffffffffffff1663150b7a02868685856040518563ffffffff1660e01b8152600401611388949392919061264c565b6020604051808303816000875af19250505080156113c457506040513d601f19601f820116820180604052508101906113c191906126ad565b60015b611448573d80600081146113f4576040519150601f19603f3d011682016040523d82523d6000602084013e6113f9565b606091505b50600081510361144057836040517f64a0ae920000000000000000000000000000000000000000000000000000000081526004016114379190611dc9565b60405180910390fd5b805181602001fd5b63150b7a0260e01b7bffffffffffffffffffffffffffffffffffffffffffffffffffffffff1916817bffffffffffffffffffffffffffffffffffffffffffffffffffffffff1916146114d157836040517f64a0ae920000000000000000000000000000000000000000000000000000000081526004016114c89190611dc9565b60405180910390fd5b505b5050505050565b606060405180602001604052806000815250905090565b6060600060016115008461186c565b01905060008167ffffffffffffffff81111561151f5761151e61205b565b5b6040519080825280601f01601f1916602001820160405280156115515781602001600182028036833780820191505090505b509050600082602001820190505b6001156115b4578080600190039150507f3031323334353637383961626364656600000000000000000000000000000000600a86061a8153600a85816115a8576115a76123fd565b5b0494506000850361155f575b819350505050919050565b80806115f85750600073ffffffffffffffffffffffffffffffffffffffff168273ffffffffffffffffffffffffffffffffffffffff1614155b1561172c57600061160884610ccc565b9050600073ffffffffffffffffffffffffffffffffffffffff168373ffffffffffffffffffffffffffffffffffffffff161415801561167357508273ffffffffffffffffffffffffffffffffffffffff168173ffffffffffffffffffffffffffffffffffffffff1614155b801561168657506116848184610b48565b155b156116c857826040517fa9fbf51f0000000000000000000000000000000000000000000000000000000081526004016116bf9190611dc9565b60405180910390fd5b811561172a57838573ffffffffffffffffffffffffffffffffffffffff168273ffffffffffffffffffffffffffffffffffffffff167f8c5be1e5ebec7d5bd14f71427d1e84f3dd0314c0f7b2291e5b200ac8c7c3b92560405160405180910390a45b505b836004600085815260200190815260200160002060006101000a81548173ffffffffffffffffffffffffffffffffffffffff021916908373ffffffffffffffffffffffffffffffffffffffff16021790555050505050565b61178f8383836119bf565b61184357600073ffffffffffffffffffffffffffffffffffffffff168373ffffffffffffffffffffffffffffffffffffffff160361180457806040517f7e2732890000000000000000000000000000000000000000000000000000000081526004016117fb9190611f4f565b60405180910390fd5b81816040517f177e802f00000000000000000000000000000000000000000000000000000000815260040161183a9291906126da565b60405180910390fd5b505050565b6118528383611a80565b61186761185d610d91565b6000858585611329565b505050565b600080600090507a184f03e93ff9f4daa797ed6e38ed64bf6a1f01000000000000000083106118ca577a184f03e93ff9f4daa797ed6e38ed64bf6a1f01000000000000000083816118c0576118bf6123fd565b5b0492506040810190505b6d04ee2d6d415b85acef81000000008310611907576d04ee2d6d415b85acef810000000083816118fd576118fc6123fd565b5b0492506020810190505b662386f26fc10000831061193657662386f26fc10000838161192c5761192b6123fd565b5b0492506010810190505b6305f5e100831061195f576305f5e1008381611955576119546123fd565b5b0492506008810190505b612710831061198457612710838161197a576119796123fd565b5b0492506004810190505b606483106119a7576064838161199d5761199c6123fd565b5b0492506002810190505b600a83106119b6576001810190505b80915050919050565b60008073ffffffffffffffffffffffffffffffffffffffff168373ffffffffffffffffffffffffffffffffffffffff1614158015611a7757508273ffffffffffffffffffffffffffffffffffffffff168473ffffffffffffffffffffffffffffffffffffffff161480611a385750611a378484610b48565b5b80611a7657508273ffffffffffffffffffffffffffffffffffffffff16611a5e83610d54565b73ffffffffffffffffffffffffffffffffffffffff16145b5b90509392505050565b600073ffffffffffffffffffffffffffffffffffffffff168273ffffffffffffffffffffffffffffffffffffffff1603611af25760006040517f64a0ae92000000000000000000000000000000000000000000000000000000008152600401611ae99190611dc9565b60405180910390fd5b6000611b0083836000610dab565b9050600073ffffffffffffffffffffffffffffffffffffffff168173ffffffffffffffffffffffffffffffffffffffff1614611b745760006040517f73c6ac6e000000000000000000000000000000000000000000000000000000008152600401611b6b9190611dc9565b60405180910390fd5b505050565b6040518060600160405280600060ff168152602001600060ff168152602001600061ffff1681525090565b6000604051905090565b600080fd5b600080fd5b60007fffffffff0000000000000000000000000000000000000000000000000000000082169050919050565b611bed81611bb8565b8114611bf857600080fd5b50565b600081359050611c0a81611be4565b92915050565b600060208284031215611c2657611c25611bae565b5b6000611c3484828501611bfb565b91505092915050565b60008115159050919050565b611c5281611c3d565b82525050565b6000602082019050611c6d6000830184611c49565b92915050565b600081519050919050565b600082825260208201905092915050565b60005b83811015611cad578082015181840152602081019050611c92565b60008484015250505050565b6000601f19601f8301169050919050565b6000611cd582611c73565b611cdf8185611c7e565b9350611cef818560208601611c8f565b611cf881611cb9565b840191505092915050565b60006020820190508181036000830152611d1d8184611cca565b905092915050565b6000819050919050565b611d3881611d25565b8114611d4357600080fd5b50565b600081359050611d5581611d2f565b92915050565b600060208284031215611d7157611d70611bae565b5b6000611d7f84828501611d46565b91505092915050565b600073ffffffffffffffffffffffffffffffffffffffff82169050919050565b6000611db382611d88565b9050919050565b611dc381611da8565b82525050565b6000602082019050611dde6000830184611dba565b92915050565b611ded81611da8565b8114611df857600080fd5b50565b600081359050611e0a81611de4565b92915050565b60008060408385031215611e2757611e26611bae565b5b6000611e3585828601611dfb565b9250506020611e4685828601611d46565b9150509250929050565b600080600060608486031215611e6957611e68611bae565b5b6000611e7786828701611dfb565b9350506020611e8886828701611dfb565b9250506040611e9986828701611d46565b9150509250925092565b600060ff82169050919050565b611eb981611ea3565b82525050565b600061ffff82169050919050565b611ed681611ebf565b82525050565b6000606082019050611ef16000830186611eb0565b611efe6020830185611eb0565b611f0b6040830184611ecd565b949350505050565b600060208284031215611f2957611f28611bae565b5b6000611f3784828501611dfb565b91505092915050565b611f4981611d25565b82525050565b6000602082019050611f646000830184611f40565b92915050565b611f7381611ea3565b82525050565b611f8281611ebf565b82525050565b606082016000820151611f9e6000850182611f6a565b506020820151611fb16020850182611f6a565b506040820151611fc46040850182611f79565b50505050565b6000606082019050611fdf6000830184611f88565b92915050565b611fee81611c3d565b8114611ff957600080fd5b50565b60008135905061200b81611fe5565b92915050565b6000806040838503121561202857612027611bae565b5b600061203685828601611dfb565b925050602061204785828601611ffc565b9150509250929050565b600080fd5b600080fd5b7f4e487b7100000000000000000000000000000000000000000000000000000000600052604160045260246000fd5b61209382611cb9565b810181811067ffffffffffffffff821117156120b2576120b161205b565b5b80604052505050565b60006120c5611ba4565b90506120d1828261208a565b919050565b600067ffffffffffffffff8211156120f1576120f061205b565b5b6120fa82611cb9565b9050602081019050919050565b82818337600083830152505050565b6000612129612124846120d6565b6120bb565b90508281526020810184848401111561214557612144612056565b5b612150848285612107565b509392505050565b600082601f83011261216d5761216c612051565b5b813561217d848260208601612116565b91505092915050565b600080600080608085870312156121a05761219f611bae565b5b60006121ae87828801611dfb565b94505060206121bf87828801611dfb565b93505060406121d087828801611d46565b925050606085013567ffffffffffffffff8111156121f1576121f0611bb3565b5b6121fd87828801612158565b91505092959194509250565b600080604083850312156122205761221f611bae565b5b600061222e85828601611dfb565b925050602061223f85828601611dfb565b9150509250929050565b7f4e487b7100000000000000000000000000000000000000000000000000000000600052602260045260246000fd5b6000600282049050600182168061229057607f821691505b6020821081036122a3576122a2612249565b5b50919050565b60006060820190506122be6000830186611dba565b6122cb6020830185611f40565b6122d86040830184611dba565b949350505050565b7f4e487b7100000000000000000000000000000000000000000000000000000000600052601160045260246000fd5b600061231a82611d25565b91507fffffffffffffffffffffffffffffffffffffffffffffffffffffffffffffffff820361234c5761234b6122e0565b5b600182019050919050565b6000819050919050565b61237261236d82611d25565b612357565b82525050565b60008160601b9050919050565b600061239082612378565b9050919050565b60006123a282612385565b9050919050565b6123ba6123b582611da8565b612397565b82525050565b60006123cc8286612361565b6020820191506123dc82856123a9565b6014820191506123ec8284612361565b602082019150819050949350505050565b7f4e487b7100000000000000000000000000000000000000000000000000000000600052601260045260246000fd5b600061243782611d25565b915061244283611d25565b925082612452576124516123fd565b5b828206905092915050565b600061246882611ebf565b915061247383611ebf565b9250828201905061ffff81111561248d5761248c6122e0565b5b92915050565b7f4552433732314d657461646174613a2055524920717565727920666f72206e6f60008201527f6e6578697374656e7420746f6b656e0000000000000000000000000000000000602082015250565b60006124ef602f83611c7e565b91506124fa82612493565b604082019050919050565b6000602082019050818103600083015261251e816124e2565b9050919050565b600081905092915050565b600061253b82611c73565b6125458185612525565b9350612555818560208601611c8f565b80840191505092915050565b600061256d8285612530565b91506125798284612530565b91508190509392505050565b60006125918286612361565b6020820191506125a18285612361565b6020820191506125b182846123a9565b601482019150819050949350505050565b60006125cd82611ea3565b91506125d883611ea3565b9250828201905060ff8111156125f1576125f06122e0565b5b92915050565b600081519050919050565b600082825260208201905092915050565b600061261e826125f7565b6126288185612602565b9350612638818560208601611c8f565b61264181611cb9565b840191505092915050565b60006080820190506126616000830187611dba565b61266e6020830186611dba565b61267b6040830185611f40565b818103606083015261268d8184612613565b905095945050505050565b6000815190506126a781611be4565b92915050565b6000602082840312156126c3576126c2611bae565b5b60006126d184828501612698565b91505092915050565b60006040820190506126ef6000830185611dba565b6126fc6020830184611f40565b939250505056fea2646970667358221220d7dd65fb553b40fa1eb725393d44fdcf490450d52d4e9e8db16969d65f8e0b4764736f6c63430008180033",
  "linkReferences": {},
  "deployedLinkReferences": {}
}