{
  "_format": "hh-sol-artifact-1",
  "contractName": "FightClub",
  "sourceName": "contracts/FightClub.sol",
  "abi": [
    {
      "inputs": [
        {
          "internalType": "address",
          "name": "_fighterNFT",
          "type": "address"
        }
      ],
      "stateMutability": "nonpayable",
      "type": "constructor"
    },
    {
      "inputs": [
        {
          "internalType": "address",
          "name": "owner",
          "type": "address"
        }
      ],
      "name": "OwnableInvalidOwner",
      "type": "error"
    },
    {
      "inputs": [
        {
          "internalType": "address",
          "name": "account",
          "type": "address"
        }
      ],
      "name": "OwnableUnauthorizedAccount",
      "type": "error"
    },
    {
      "anonymous": false,
      "inputs": [
        {
          "indexed": true,
          "internalType": "address",
          "name": "player",
          "type": "address"
        },
        {
          "indexed": false,
          "internalType": "bool",
          "name": "fighterWon",
          "type": "bool"
        },
        {
          "indexed": false,
          "internalType": "uint256",
          "name": "payout",
          "type": "uint256"
        }
      ],
      "name": "FightCompleted",
      "type": "event"
    },
    {
      "anonymous": false,
      "inputs": [
        {
          "indexed": true,
          "internalType": "address",
          "name": "player",
          "type": "address"
        },
        {
          "indexed": false,
          "internalType": "uint256",
          "name": "fighterTokenId",
          "type": "uint256"
        },
        {
          "indexed": false,
          "internalType": "uint256",
          "name": "stakeAmount",
          "type": "uint256"
        }
      ],
      "name": "FightStarted",
      "type": "event"
    },
    {
      "anonymous": false,
      "inputs": [
        {
          "indexed": true,
          "internalType": "address",
          "name": "previousOwner",
          "type": "address"
        },
        {
          "indexed": true,
          "internalType": "address",
          "name": "newOwner",
          "type": "address"
        }
      ],
      "name": "OwnershipTransferred",
      "type": "event"
    },
    {
      "anonymous": false,
      "inputs": [
        {
          "indexed": true,
          "internalType": "address",
          "name": "player",
          "type": "address"
        },
        {
          "indexed": false,
          "internalType": "uint256",
          "name": "amount",
          "type": "uint256"
        }
      ],
      "name": "StakeWithdrawn",
      "type": "event"
    },
    {
      "inputs": [],
      "name": "FIGHT_REWARD_MULTIPLIER",
      "outputs": [
        {
          "internalType": "uint256",
          "name": "",
          "type": "uint256"
        }
      ],
      "stateMutability": "view",
      "type": "function"
    },
    {
      "inputs": [],
      "name": "MIN_STAKE",
      "outputs": [
        {
          "internalType": "uint256",
          "name": "",
          "type": "uint256"
        }
      ],
      "stateMutability": "view",
      "type": "function"
    },
    {
      "inputs": [
        {
          "internalType": "address",
          "name": "",
          "type": "address"
        }
      ],
      "name": "activeFights",
      "outputs": [
        {
          "internalType": "uint256",
          "name": "fighterTokenId",
          "type": "uint256"
        },
        {
          "components": [
            {
              "internalType": "uint8",
              "name": "str",
              "type": "uint8"
            },
            {
              "internalType": "uint8",
              "name": "dex",
              "type": "uint8"
            },
            {
              "internalType": "uint16",
              "name": "hp",
              "type": "uint16"
            }
          ],
          "internalType": "struct FightClub.NPCStats",
          "name": "npc",
          "type": "tuple"
        },
        {
          "internalType": "uint256",
          "name": "stakeAmount",
          "type": "uint256"
        },
        {
          "internalType": "address",
          "name": "staker",
          "type": "address"
        },
        {
          "internalType": "bool",
          "name": "isActive",
          "type": "bool"
        },
        {
          "internalType": "bool",
          "name": "fighterWon",
          "type": "bool"
        }
      ],
      "stateMutability": "view",
      "type": "function"
    },
    {
      "inputs": [],
      "name": "fight",
      "outputs": [],
      "stateMutability": "nonpayable",
      "type": "function"
    },
    {
      "inputs": [],
      "name": "fighterNFT",
      "outputs": [
        {
          "internalType": "contract FighterNFT",
          "name": "",
          "type": "address"
        }
      ],
      "stateMutability": "view",
      "type": "function"
    },
    {
      "inputs": [
        {
          "internalType": "address",
          "name": "player",
          "type": "address"
        }
      ],
      "name": "getFightDetails",
      "outputs": [
        {
          "components": [
            {
              "internalType": "uint256",
              "name": "fighterTokenId",
              "type": "uint256"
            },
            {
              "components": [
                {
                  "internalType": "uint8",
                  "name": "str",
                  "type": "uint8"
                },
                {
                  "internalType": "uint8",
                  "name": "dex",
                  "type": "uint8"
                },
                {
                  "internalType": "uint16",
                  "name": "hp",
                  "type": "uint16"
                }
              ],
              "internalType": "struct FightClub.NPCStats",
              "name": "npc",
              "type": "tuple"
            },
            {
              "internalType": "uint256",
              "name": "stakeAmount",
              "type": "uint256"
            },
            {
              "internalType": "address",
              "name": "staker",
              "type": "address"
            },
            {
              "internalType": "bool",
              "name": "isActive",
              "type": "bool"
            },
            {
              "internalType": "bool",
              "name": "fighterWon",
              "type": "bool"
            }
          ],
          "internalType": "struct FightClub.Fight",
          "name": "",
          "type": "tuple"
        }
      ],
      "stateMutability": "view",
      "type": "function"
    },
    {
      "inputs": [
        {
          "internalType": "address",
          "name": "player",
          "type": "address"
        }
      ],
      "name": "getNPCStats",
      "outputs": [
        {
          "components": [
            {
              "internalType": "uint8",
              "name": "str",
              "type": "uint8"
            },
            {
              "internalType": "uint8",
              "name": "dex",
              "type": "uint8"
            },
            {
              "internalType": "uint16",
              "name": "hp",
              "type": "uint16"
            }
          ],
          "internalType": "struct FightClub.NPCStats",
          "name": "",
          "type": "tuple"
        }
      ],
      "stateMutability": "view",
      "type": "function"
    },
    {
      "inputs": [],
      "name": "owner",
      "outputs": [
        {
          "internalType": "address",
          "name": "",
          "type": "address"
        }
      ],
      "stateMutability": "view",
      "type": "function"
    },
    {
      "inputs": [],
      "name": "renounceOwnership",
      "outputs": [],
      "stateMutability": "nonpayable",
      "type": "function"
    },
    {
      "inputs": [
        {
          "internalType": "uint256",
          "name": "fighterTokenId",
          "type": "uint256"
        }
      ],
      "name": "stake",
      "outputs": [],
      "stateMutability": "payable",
      "type": "function"
    },
    {
      "inputs": [
        {
          "internalType": "address",
          "name": "",
          "type": "address"
        }
      ],
      "name": "stakedAmounts",
      "outputs": [
        {
          "internalType": "uint256",
          "name": "",
          "type": "uint256"
        }
      ],
      "stateMutability": "view",
      "type": "function"
    },
    {
      "inputs": [
        {
          "internalType": "address",
          "name": "newOwner",
          "type": "address"
        }
      ],
      "name": "transferOwnership",
      "outputs": [],
      "stateMutability": "nonpayable",
      "type": "function"
    },
    {
      "inputs": [],
      "name": "withdrawContractBalance",
      "outputs": [],
      "stateMutability": "nonpayable",
      "type": "function"
    },
    {
      "stateMutability": "payable",
      "type": "receive"
    }
  ],
  "bytecode": "0x60806040523480156200001157600080fd5b50604051620023d0380380620023d0833981810160405281019062000037919062000235565b33600073ffffffffffffffffffffffffffffffffffffffff168173ffffffffffffffffffffffffffffffffffffffff1603620000ad5760006040517f1e4fbdf7000000000000000000000000000000000000000000000000000000008152600401620000a4919062000278565b60405180910390fd5b620000be816200010760201b60201c565b5080600160006101000a81548173ffffffffffffffffffffffffffffffffffffffff021916908373ffffffffffffffffffffffffffffffffffffffff1602179055505062000295565b60008060009054906101000a900473ffffffffffffffffffffffffffffffffffffffff169050816000806101000a81548173ffffffffffffffffffffffffffffffffffffffff021916908373ffffffffffffffffffffffffffffffffffffffff1602179055508173ffffffffffffffffffffffffffffffffffffffff168173ffffffffffffffffffffffffffffffffffffffff167f8be0079c531659141344cd1fd0a4f28419497f9722a3daafe3b4186f6b6457e060405160405180910390a35050565b600080fd5b600073ffffffffffffffffffffffffffffffffffffffff82169050919050565b6000620001fd82620001d0565b9050919050565b6200020f81620001f0565b81146200021b57600080fd5b50565b6000815190506200022f8162000204565b92915050565b6000602082840312156200024e576200024d620001cb565b5b60006200025e848285016200021e565b91505092915050565b6200027281620001f0565b82525050565b60006020820190506200028f600083018462000267565b92915050565b61212b80620002a56000396000f3fe6080604052600436106100c65760003560e01c80638da5cb5b1161007f578063bfab3db911610059578063bfab3db91461026b578063cb1c2b5c14610282578063f2fde38b146102ad578063fa818cf6146102d6576100cd565b80638da5cb5b146101e7578063a694fc3a14610212578063b6d9668d1461022e576100cd565b806310c1c103146100d25780632f74bf351461010f57806341d2467c14610151578063457df8de1461018e578063715018a6146101a557806379b9ef6f146101bc576100cd565b366100cd57005b600080fd5b3480156100de57600080fd5b506100f960048036038101906100f49190611506565b610301565b604051610106919061154c565b60405180910390f35b34801561011b57600080fd5b5061013660048036038101906101319190611506565b610319565b6040516101489695949392919061160c565b60405180910390f35b34801561015d57600080fd5b5061017860048036038101906101739190611506565b6103f3565b6040516101859190611759565b60405180910390f35b34801561019a57600080fd5b506101a361055a565b005b3480156101b157600080fd5b506101ba610932565b005b3480156101c857600080fd5b506101d1610946565b6040516101de919061154c565b60405180910390f35b3480156101f357600080fd5b506101fc61094b565b6040516102099190611775565b60405180910390f35b61022c600480360381019061022791906117bc565b610974565b005b34801561023a57600080fd5b5061025560048036038101906102509190611506565b610da5565b60405161026291906117e9565b60405180910390f35b34801561027757600080fd5b50610280610eea565b005b34801561028e57600080fd5b50610297610fae565b6040516102a4919061154c565b60405180910390f35b3480156102b957600080fd5b506102d460048036038101906102cf9190611506565b610fb9565b005b3480156102e257600080fd5b506102eb61103f565b6040516102f89190611863565b60405180910390f35b60036020528060005260406000206000915090505481565b6002602052806000526040600020600091509050806000015490806001016040518060600160405290816000820160009054906101000a900460ff1660ff1660ff1681526020016000820160019054906101000a900460ff1660ff1660ff1681526020016000820160029054906101000a900461ffff1661ffff1661ffff1681525050908060020154908060030160009054906101000a900473ffffffffffffffffffffffffffffffffffffffff16908060030160149054906101000a900460ff16908060030160159054906101000a900460ff16905086565b6103fb611418565b600260008373ffffffffffffffffffffffffffffffffffffffff1673ffffffffffffffffffffffffffffffffffffffff1681526020019081526020016000206040518060c001604052908160008201548152602001600182016040518060600160405290816000820160009054906101000a900460ff1660ff1660ff1681526020016000820160019054906101000a900460ff1660ff1660ff1681526020016000820160029054906101000a900461ffff1661ffff1661ffff16815250508152602001600282015481526020016003820160009054906101000a900473ffffffffffffffffffffffffffffffffffffffff1673ffffffffffffffffffffffffffffffffffffffff1673ffffffffffffffffffffffffffffffffffffffff1681526020016003820160149054906101000a900460ff161515151581526020016003820160159054906101000a900460ff1615151515815250509050919050565b6000600260003373ffffffffffffffffffffffffffffffffffffffff1673ffffffffffffffffffffffffffffffffffffffff16815260200190815260200160002090508060030160149054906101000a900460ff166105ee576040517f08c379a00000000000000000000000000000000000000000000000000000000081526004016105e5906118db565b60405180910390fd5b6000600160009054906101000a900473ffffffffffffffffffffffffffffffffffffffff1673ffffffffffffffffffffffffffffffffffffffff16637b30396583600001546040518263ffffffff1660e01b815260040161064f919061154c565b606060405180830381865afa15801561066c573d6000803e3d6000fd5b505050506040513d601f19601f820116820180604052508101906106909190611a48565b9050600042443385600001546040516020016106af9493929190611ade565b604051602081830303815290604052805190602001209050600061073c83856001016040518060600160405290816000820160009054906101000a900460ff1660ff1660ff1681526020016000820160019054906101000a900460ff1660ff1660ff1681526020016000820160029054906101000a900461ffff1661ffff1661ffff168152505084611065565b9050808460030160156101000a81548160ff02191690831515021790555060008460030160146101000a81548160ff0219169083151502179055506000811561089557606460b486600201546107929190611b5b565b61079c9190611bcc565b90506000600360003373ffffffffffffffffffffffffffffffffffffffff1673ffffffffffffffffffffffffffffffffffffffff1681526020019081526020016000208190555060003373ffffffffffffffffffffffffffffffffffffffff168260405161080990611c2e565b60006040518083038185875af1925050503d8060008114610846576040519150601f19603f3d011682016040523d82523d6000602084013e61084b565b606091505b505090508061088f576040517f08c379a000000000000000000000000000000000000000000000000000000000815260040161088690611c8f565b60405180910390fd5b506108db565b6000600360003373ffffffffffffffffffffffffffffffffffffffff1673ffffffffffffffffffffffffffffffffffffffff168152602001908152602001600020819055505b3373ffffffffffffffffffffffffffffffffffffffff167fe04013cbde3af3e89a4ec11dabdce06c960fc31005799d45499ad103c909aae68383604051610923929190611caf565b60405180910390a25050505050565b61093a611195565b610944600061121c565b565b60b481565b60008060009054906101000a900473ffffffffffffffffffffffffffffffffffffffff16905090565b66038d7ea4c680003410156109be576040517f08c379a00000000000000000000000000000000000000000000000000000000081526004016109b590611d24565b60405180910390fd5b3373ffffffffffffffffffffffffffffffffffffffff16600160009054906101000a900473ffffffffffffffffffffffffffffffffffffffff1673ffffffffffffffffffffffffffffffffffffffff16636352211e836040518263ffffffff1660e01b8152600401610a30919061154c565b602060405180830381865afa158015610a4d573d6000803e3d6000fd5b505050506040513d601f19601f82011682018060405250810190610a719190611d59565b73ffffffffffffffffffffffffffffffffffffffff1614610ac7576040517f08c379a0000000000000000000000000000000000000000000000000000000008152600401610abe90611dd2565b60405180910390fd5b600260003373ffffffffffffffffffffffffffffffffffffffff1673ffffffffffffffffffffffffffffffffffffffff16815260200190815260200160002060030160149054906101000a900460ff1615610b57576040517f08c379a0000000000000000000000000000000000000000000000000000000008152600401610b4e90611e3e565b60405180910390fd5b6000610b6333836112e0565b90506040518060c001604052808381526020018281526020013481526020013373ffffffffffffffffffffffffffffffffffffffff16815260200160011515815260200160001515815250600260003373ffffffffffffffffffffffffffffffffffffffff1673ffffffffffffffffffffffffffffffffffffffff1681526020019081526020016000206000820151816000015560208201518160010160008201518160000160006101000a81548160ff021916908360ff16021790555060208201518160000160016101000a81548160ff021916908360ff16021790555060408201518160000160026101000a81548161ffff021916908361ffff16021790555050506040820151816002015560608201518160030160006101000a81548173ffffffffffffffffffffffffffffffffffffffff021916908373ffffffffffffffffffffffffffffffffffffffff16021790555060808201518160030160146101000a81548160ff02191690831515021790555060a08201518160030160156101000a81548160ff02191690831515021790555090505034600360003373ffffffffffffffffffffffffffffffffffffffff1673ffffffffffffffffffffffffffffffffffffffff1681526020019081526020016000206000828254610d4a9190611e5e565b925050819055503373ffffffffffffffffffffffffffffffffffffffff167f4e4bdf9224446ebdeea4c74974df664955ccdf8d878dd1cebb4b8859b1f89b938334604051610d99929190611e92565b60405180910390a25050565b610dad61146e565b600260008373ffffffffffffffffffffffffffffffffffffffff1673ffffffffffffffffffffffffffffffffffffffff16815260200190815260200160002060030160149054906101000a900460ff16610e3c576040517f08c379a0000000000000000000000000000000000000000000000000000000008152600401610e33906118db565b60405180910390fd5b600260008373ffffffffffffffffffffffffffffffffffffffff1673ffffffffffffffffffffffffffffffffffffffff1681526020019081526020016000206001016040518060600160405290816000820160009054906101000a900460ff1660ff1660ff1681526020016000820160019054906101000a900460ff1660ff1660ff1681526020016000820160029054906101000a900461ffff1661ffff1661ffff16815250509050919050565b610ef2611195565b60004790506000610f0161094b565b73ffffffffffffffffffffffffffffffffffffffff1682604051610f2490611c2e565b60006040518083038185875af1925050503d8060008114610f61576040519150601f19603f3d011682016040523d82523d6000602084013e610f66565b606091505b5050905080610faa576040517f08c379a0000000000000000000000000000000000000000000000000000000008152600401610fa190611f07565b60405180910390fd5b5050565b66038d7ea4c6800081565b610fc1611195565b600073ffffffffffffffffffffffffffffffffffffffff168173ffffffffffffffffffffffffffffffffffffffff16036110335760006040517f1e4fbdf700000000000000000000000000000000000000000000000000000000815260040161102a9190611775565b60405180910390fd5b61103c8161121c565b50565b600160009054906101000a900473ffffffffffffffffffffffffffffffffffffffff1681565b600080846040015161ffff1690506000846040015161ffff1690506000856020015160ff16876020015160ff161015905060005b6000841180156110a95750600083115b80156110b55750603281105b15611184578180156110d3575060006002826110d19190611f27565b145b806110f45750811580156110f3575060016002826110f19190611f27565b145b5b1561113157600061110a896000015188846113a2565b905083811061111c576000935061112b565b80846111289190611f58565b93505b50611171565b600061114e8860000151886001856111499190611e5e565b6113a2565b9050848110611160576000945061116f565b808561116c9190611f58565b94505b505b808061117c90611f8c565b915050611099565b600084119450505050509392505050565b61119d611410565b73ffffffffffffffffffffffffffffffffffffffff166111bb61094b565b73ffffffffffffffffffffffffffffffffffffffff161461121a576111de611410565b6040517f118cdaa70000000000000000000000000000000000000000000000000000000081526004016112119190611775565b60405180910390fd5b565b60008060009054906101000a900473ffffffffffffffffffffffffffffffffffffffff169050816000806101000a81548173ffffffffffffffffffffffffffffffffffffffff021916908373ffffffffffffffffffffffffffffffffffffffff1602179055508173ffffffffffffffffffffffffffffffffffffffff168173ffffffffffffffffffffffffffffffffffffffff167f8be0079c531659141344cd1fd0a4f28419497f9722a3daafe3b4186f6b6457e060405160405180910390a35050565b6112e861146e565b60004244858543604051602001611303959493929190611fd4565b6040516020818303038152906040528051906020012090506040518060600160405280600160648460001c6113389190611f27565b6113429190612033565b60ff16815260200160016064600885901c60001c6113609190611f27565b61136a9190612033565b60ff168152602001606460c8601085901c60001c6113889190611f27565b6113929190612068565b61ffff1681525091505092915050565b600080604b603285856040516020016113bc9291906120c9565b6040516020818303038152906040528051906020012060001c6113df9190611f27565b6113e99190611e5e565b90506064818660ff166113fc9190611b5b565b6114069190611bcc565b9150509392505050565b600033905090565b6040518060c001604052806000815260200161143261146e565b815260200160008152602001600073ffffffffffffffffffffffffffffffffffffffff1681526020016000151581526020016000151581525090565b6040518060600160405280600060ff168152602001600060ff168152602001600061ffff1681525090565b6000604051905090565b600080fd5b600073ffffffffffffffffffffffffffffffffffffffff82169050919050565b60006114d3826114a8565b9050919050565b6114e3816114c8565b81146114ee57600080fd5b50565b600081359050611500816114da565b92915050565b60006020828403121561151c5761151b6114a3565b5b600061152a848285016114f1565b91505092915050565b6000819050919050565b61154681611533565b82525050565b6000602082019050611561600083018461153d565b92915050565b600060ff82169050919050565b61157d81611567565b82525050565b600061ffff82169050919050565b61159a81611583565b82525050565b6060820160008201516115b66000850182611574565b5060208201516115c96020850182611574565b5060408201516115dc6040850182611591565b50505050565b6115eb816114c8565b82525050565b60008115159050919050565b611606816115f1565b82525050565b600061010082019050611622600083018961153d565b61162f60208301886115a0565b61163c608083018761153d565b61164960a08301866115e2565b61165660c08301856115fd565b61166360e08301846115fd565b979650505050505050565b61167781611533565b82525050565b6060820160008201516116936000850182611574565b5060208201516116a66020850182611574565b5060408201516116b96040850182611591565b50505050565b6116c8816114c8565b82525050565b6116d7816115f1565b82525050565b610100820160008201516116f4600085018261166e565b506020820151611707602085018261167d565b50604082015161171a608085018261166e565b50606082015161172d60a08501826116bf565b50608082015161174060c08501826116ce565b5060a082015161175360e08501826116ce565b50505050565b60006101008201905061176f60008301846116dd565b92915050565b600060208201905061178a60008301846115e2565b92915050565b61179981611533565b81146117a457600080fd5b50565b6000813590506117b681611790565b92915050565b6000602082840312156117d2576117d16114a3565b5b60006117e0848285016117a7565b91505092915050565b60006060820190506117fe60008301846115a0565b92915050565b6000819050919050565b600061182961182461181f846114a8565b611804565b6114a8565b9050919050565b600061183b8261180e565b9050919050565b600061184d82611830565b9050919050565b61185d81611842565b82525050565b60006020820190506118786000830184611854565b92915050565b600082825260208201905092915050565b7f4e6f206163746976652066696768740000000000000000000000000000000000600082015250565b60006118c5600f8361187e565b91506118d08261188f565b602082019050919050565b600060208201905081810360008301526118f4816118b8565b9050919050565b600080fd5b6000601f19601f8301169050919050565b7f4e487b7100000000000000000000000000000000000000000000000000000000600052604160045260246000fd5b61194982611900565b810181811067ffffffffffffffff8211171561196857611967611911565b5b80604052505050565b600061197b611499565b90506119878282611940565b919050565b61199581611567565b81146119a057600080fd5b50565b6000815190506119b28161198c565b92915050565b6119c181611583565b81146119cc57600080fd5b50565b6000815190506119de816119b8565b92915050565b6000606082840312156119fa576119f96118fb565b5b611a046060611971565b90506000611a14848285016119a3565b6000830152506020611a28848285016119a3565b6020830152506040611a3c848285016119cf565b60408301525092915050565b600060608284031215611a5e57611a5d6114a3565b5b6000611a6c848285016119e4565b91505092915050565b6000819050919050565b611a90611a8b82611533565b611a75565b82525050565b60008160601b9050919050565b6000611aae82611a96565b9050919050565b6000611ac082611aa3565b9050919050565b611ad8611ad3826114c8565b611ab5565b82525050565b6000611aea8287611a7f565b602082019150611afa8286611a7f565b602082019150611b0a8285611ac7565b601482019150611b1a8284611a7f565b60208201915081905095945050505050565b7f4e487b7100000000000000000000000000000000000000000000000000000000600052601160045260246000fd5b6000611b6682611533565b9150611b7183611533565b9250828202611b7f81611533565b91508282048414831517611b9657611b95611b2c565b5b5092915050565b7f4e487b7100000000000000000000000000000000000000000000000000000000600052601260045260246000fd5b6000611bd782611533565b9150611be283611533565b925082611bf257611bf1611b9d565b5b828204905092915050565b600081905092915050565b50565b6000611c18600083611bfd565b9150611c2382611c08565b600082019050919050565b6000611c3982611c0b565b9150819050919050565b7f5061796f7574207472616e73666572206661696c656400000000000000000000600082015250565b6000611c7960168361187e565b9150611c8482611c43565b602082019050919050565b60006020820190508181036000830152611ca881611c6c565b9050919050565b6000604082019050611cc460008301856115fd565b611cd1602083018461153d565b9392505050565b7f5374616b6520616d6f756e7420746f6f206c6f77000000000000000000000000600082015250565b6000611d0e60148361187e565b9150611d1982611cd8565b602082019050919050565b60006020820190508181036000830152611d3d81611d01565b9050919050565b600081519050611d53816114da565b92915050565b600060208284031215611d6f57611d6e6114a3565b5b6000611d7d84828501611d44565b91505092915050565b7f596f7520646f6e2774206f776e20746869732066696768746572000000000000600082015250565b6000611dbc601a8361187e565b9150611dc782611d86565b602082019050919050565b60006020820190508181036000830152611deb81611daf565b9050919050565b7f596f7520616c7265616479206861766520616e20616374697665206669676874600082015250565b6000611e2860208361187e565b9150611e3382611df2565b602082019050919050565b60006020820190508181036000830152611e5781611e1b565b9050919050565b6000611e6982611533565b9150611e7483611533565b9250828201905080821115611e8c57611e8b611b2c565b5b92915050565b6000604082019050611ea7600083018561153d565b611eb4602083018461153d565b9392505050565b7f5769746864726177616c206661696c6564000000000000000000000000000000600082015250565b6000611ef160118361187e565b9150611efc82611ebb565b602082019050919050565b60006020820190508181036000830152611f2081611ee4565b9050919050565b6000611f3282611533565b9150611f3d83611533565b925082611f4d57611f4c611b9d565b5b828206905092915050565b6000611f6382611533565b9150611f6e83611533565b9250828203905081811115611f8657611f85611b2c565b5b92915050565b6000611f9782611533565b91507fffffffffffffffffffffffffffffffffffffffffffffffffffffffffffffffff8203611fc957611fc8611b2c565b5b600182019050919050565b6000611fe08288611a7f565b602082019150611ff08287611a7f565b6020820191506120008286611ac7565b6014820191506120108285611a7f565b6020820191506120208284611a7f565b6020820191508190509695505050505050565b600061203e82611567565b915061204983611567565b9250828201905060ff81111561206257612061611b2c565b5b92915050565b600061207382611583565b915061207e83611583565b9250828201905061ffff81111561209857612097611b2c565b5b92915050565b6000819050919050565b6000819050919050565b6120c36120be8261209e565b6120a8565b82525050565b60006120d582856120b2565b6020820191506120e58284611a7f565b602082019150819050939250505056fea264697066735822122099b3263d2e04bab9ba771f0bddb930ddc333adb2aff4c484217580e97e570b7e64736f6c63430008180033",
  "linkReferences": {},
  "deployedLinkReferences": {}
}